:020000040800F2
:10000000D8060020CD010008590600081F0400088A
:10001000550600089F020008750A0008000000004D
:100020000000000000000000000000007907000848
:10003000A3020008000000005B060008C9080008D1
:10004000E7010008E7010008E7010008E7010008F0
:10005000E7010008E7010008E7010008E7010008E0
:10006000E7010008E7010008E7010008E7010008D0
:10007000E7010008E7010008E7010008E7010008C0
:10008000E7010008E7010008E7010008E7010008B0
:10009000E7010008E7010008E7010008E7010008A0
:1000A000E7010008E7010008E7010008E701000890
:1000B0002D09000845090008E7010008E7010008CC
:1000C000E7010008E7010008E7010008E701000870
:1000D000E7010008E7010008E7010008E701000860
:1000E000E7010008E7010008E7010008E701000850
:1000F000E7010008E7010008E7010008E701000840
:10010000E7010008E7010008E7010008E70100082F
:10011000E7010008E70100085D090008E7010008A1
:10012000E7010008E7010008E7010008E70100080F
:1001300000F002F800F03AF80AA090E8000C8244BF
:100140008344AAF10107DA4501D100F02FF8AFF29C
:10015000090EBAE80F0013F0010F18BFFB1A43F0A5
:1001600001031847BC210000DC210000103A24BF25
:1001700078C878C1FAD8520724BF30C830C144BF0C
:1001800004680C607047000000230024002500264E
:10019000103A28BF78C1FBD8520728BF30C148BFEA
:1001A0000B6070471FB51FBD10B510BD00F044F8BF
:1001B0001146FFF7F7FF00F0FFFF00F062F803B40D
:1001C000FFF7F2FF03BC00F063F800000948804726
:1001D00009480047FEE7FEE7FEE7FEE7FEE7FEE729
:1001E000FEE7FEE7FEE7FEE704480549054A064B41
:1001F00070470000CD08000831010008D800002039
:10020000D8060020D8020020D8020020704770478E
:10021000704710B500F008F8006810BD10B504462E
:1002200000F002F8046010BD00487047780000201C
:1002300000487047780000207546FFF7F9FFAE468A
:1002400005006946534620F00700854618B020B5E2
:10025000FFF7CAFFBDE820404FF000064FF000074F
:100260004FF000084FF0000B21F00701AC46ACE85E
:10027000C009ACE8C009ACE8C009ACE8C0098D46CB
:1002800070470446AFF300802046FFF798FF000058
:1002900001491820ABBEFEE726000200704700BFF0
:1002A000FEE7704730B58BB004460D46002184EA66
:1002B00001006940084301D10BB030BD4BE001A8FB
:1002C00000F0CCF94B490298884212D24FF0E0205E
:1002D000006940F004004FF0E02108614FF47A71AA
:1002E0000298B0FBF1F0491048434FF0E02148611B
:1002F00011E04FF0E020006920F004004FF0E02111
:1003000008614FF4FA510298B0FBF1F0091148432B
:100310004FF0E021486100204FF0E021886108465D
:10032000006940F00100086100BF4FF0E020006963
:1003300000F48030B0F5803FF7D14FF0E020006945
:1003400020F001004FF0E02108614FF4FA73E41A45
:1003500065F1000500BF4FF4FA710020091BA841A8
:10036000ADD306A800F07AF922490798884212D244
:100370004FF0E020006940F004004FF0E0210861F8
:100380004FF47A710798B0FBF1F0A0FB04014FF035
:10039000E021486111E04FF0E020006920F0040006
:1003A0004FF0E02108614FF4FA510798B0FBF1F0EB
:1003B000A0FB04014FF0E021486100204FF0E02154
:1003C00088610846006940F00100086100BF4FF0F5
:1003D000E020006900F48030B0F5803FF7D14FF0A5
:1003E000E020006920F001004FF0E021086100BF2B
:1003F00062E7000000127A0070B504460D4607E07F
:100400004FF47A700021FFF74DFF641E65F100057F
:10041000002184EA010069400843F1D170BD00BFAA
:10042000FEE7000010B50246501A164B1860184639
:100430000068154B1B68C01A144B1B685843144BBB
:100440001B68104C246803FB0400124B1B68184403
:10045000104B186018460068B0F5E15F02DD4FF4FC
:10046000E15018600B48006810F5E15F02DA0A48B5
:10047000084B186003480068034B18600548006883
:1004800010BD00006000002068000020480000202F
:100490004C00002064000020E0E3FFFF10B502469E
:1004A000501A164B186018460068154B1B68C01A86
:1004B000144B1B685843144B1B68104C246803FBF7
:1004C0000400124B1B681844104B18601846006853
:1004D000B0F5E15F02DD4FF4E15018600B480068B1
:1004E00010F5E15F02DA0A48084B1860034800681B
:1004F000034B18600548006810BD00006C00002028
:1005000074000020480000204C00002070000020F3
:10051000E0E3FFFF2DE9F05F044689464FF082419A
:10052000484601F0A3FC0646414901F06BFD054633
:1005300001F068FC3F49086008460068B0F5FA6FB2
:1005400011DD4FF4FA6008600968A1F5C86001F098
:10055000EAF807460022384B00F05EFF054600F03F
:1005600079FE814616E03348006840F24C418842EB
:1005700010DA08462F4908600968A1F5C86001F043
:10058000D2F8054600222C4B00F046FF074600F04B
:1005900061FE8146484601F0E5FA07464FF06632B3
:1005A000264B00F039FF054600F022FE2449086082
:1005B0000846006801F042FC8346224901F056FCDF
:1005C00082464FF0804101F05BFB80461E4901F0FE
:1005D00057FB07464FF07E5101F014FD06462146B9
:1005E00001F044FC054601F00DFC18490860144870
:1005F000006801F023FC8346124901F037FC824673
:100600004FF0804101F03CFB80460F4901F038FB80
:1006100007464FF07E5101F0D1FA0646214601F01F
:1006200025FC054601F0EEFB09490860BDE8F09F96
:100630000000C844280000200000204066A64C406E
:100640002C00002048E17A3EE17A943E3000002000
:100650003400002000BFFEE77047704730B500212E
:100660000022002400232D4D6D6805F00C0121B1FE
:10067000042905D0082923D105E0294D056022E091
:10068000274D05601FE0254D6D6805F47012234D60
:100690006D6805F48034022505EB92421CB9214DAA
:1006A000554305600BE01D4D6D6805F400351DB127
:1006B0001C4D5543056002E0194D5543056002E0AD
:1006C000174D056000BF00BF144D6D6805F0F001C7
:1006D0000909154D6B5C0568DD4045600F4D6D687F
:1006E00005F4E061090A104D6B5C4568DD408560EA
:1006F0000A4D6D6805F46051C90A0B4D6B5C456885
:10070000DD40C560054D6D6805F44041890B074D1E
:100710006B5CC568B5FBF3F5056130BD00100240A8
:1007200000127A0000093D000000002010000020A7
:100730000146022902D0032910D108E04FF080427F
:10074000928C10B200224FF080439A8408E0094A4C
:10075000128810B20022074B1A8001E0002000BF6F
:1007600000BF00EB400202EBC002112392FBF3F04A
:100770007047000024040040704710B500F002F8F4
:1007800010BD00000CB500200190009033480068B7
:1007900040F480303149086000BF3048006800F400
:1007A000003000900198401C0190009818B9019801
:1007B000B0F5A06FF1D12948006800F4003010B105
:1007C0000120009001E0002000900098012843D112
:1007D0002348006840F0100021490860084600687E
:1007E00020F0030008600846006840F0020008603E
:1007F0001A484068194948600846406848600846F9
:10080000406840F4806048600846406820F47C10EE
:1008100048600846406840F4E810486008460068B0
:1008200040F08070086000BF0C48006800F0007065
:100830000028F9D00948406820F0030007494860C3
:100840000846406840F00200486000BF0348406826
:1008500000F00C000828F9D10CBD00000010024087
:100860000020024010B5002808DD4FF4E153144C7D
:100870002380C0F5E153241F238008E04FF4E153A7
:100880000F4C241F238000F5E153241D23800029F1
:1008900009DD4FF4E1530A4C08342380C1F5E153DC
:1008A000241F238008E04FF4E153054C241D2380CE
:1008B00001F5E153241D2380024C228010BD00006D
:1008C00038340140342C01407047000010B5134803
:1008D000006840F00100114908600846406810496E
:1008E00008400E494860084600680E4908400B4918
:1008F00008600846006820F48020086008464068C8
:1009000020F4FE0048604FF41F008860FFF735FFB9
:100910004FF000600449086010BD00000010024064
:100920000000FFF8FFFFF6FE08ED00E04FF080400A
:10093000008A4FF08040008A20F001004FF0804193
:1009400008827047044800880348008820F00100AE
:1009500001490880704700001004004070B5012173
:100960002D4800F076F8002854D001212A4800F0E4
:100970006DF82A48007808B9012000E000202749D6
:1009800008702748006801280AD126480068401CE2
:1009900024490860022803D100200860204908602B
:1009A0001E480078012835D01C48007890BB0320F1
:1009B000FFF7BEFE1C4908600220FFF7B9FE1B4985
:1009C00008601B48006801F039FA044619480068BD
:1009D00001F034FA05462146FFF79CFD16480168F0
:1009E00012480068FFF71EFD1449086014480168AA
:1009F0000D480068FFF752FD1249086041F6F420E7
:100A000000F03AF8104802680E4801680B48006888
:100A1000FFF728FF70BD0000001000401400002008
:100A2000580000205C000020380000203C0000201E
:100A30002400002020000020300000204000002082
:100A4000340000204400002028000020CA43028215
:100A5000704730B50246002000230024158A05EABD
:100A60000103958905EA010413B10CB1012000E0EE
:100A7000002030BD00BFFEE70E49096842429142A6
:100A800002DA41420B4A11600A490968814201DDDC
:100A900008490860084909684242914202DA414225
:100AA000054A116004490968814201DD0249086074
:100AB000704700004000002044000020490050EA38
:100AC000C12018BF04204A0D18BF40F0010040F2B9
:100AD000FF72B2EB515F08BF40F00200012808BF6F
:100AE000052070472DE9F74F144694B00021C4E962
:100AF00002111599079121F00045C9498D4206DC84
:100B00001599C4E9000117B00020BDE8F08FC54970
:100B1000DFF814A3A9423CDD0799C44E0029C44F55
:100B2000C44A1599534619DD00F032FF554506D0E9
:100B3000C14AC24B00F02CFFC4E900010AE04FF0AB
:100B4000D352BE4B00F024FF32463B4600F020FF5C
:100B5000C4E9000117B00120BDE8F08F00F0ACFB44
:100B6000554506D0B44AB54B00F0A6FBC4E90001D8
:100B70000AE04FF0D352B14B00F09EFB32463B46A9
:100B800000F09AFBC4E9000117B04FF0FF30BDE858
:100B9000F08FAB49A942159978DB21F000418346DB
:100BA0008846A84AA84B00F0E9FD0022A74B00F0B8
:100BB00083FB00F089FD099000F0B5FD06460F4665
:100BC0009C4A534600F0DAFD43465A4600F0D4FEF4
:100BD00080468A46984A994B3046394600F0CEFD09
:100BE0002A0D01250B924246534600F0C5FE032D07
:100BF000C4E9000139D00B98C1F30A51401A05EB42
:100C000045111139814230DA9148C346784400EBEE
:100C10000510CDF80CA00C90D0E9002330463946E1
:100C200000F0ACFD02460B4604910690584603992D
:100C300000F0AEFE80468A4602460B4658460399AF
:100C400000F0A6FE049B069A00F0A2FE83460C98D4
:100C500003913946D0E90223304600F08FFD5A4611
:100C6000039B00F095FE6D1CBDE707980028A2BF0E
:100C7000099817B0BDE8F08F616881F000416160AC
:100C8000099817B04042BDE8F08FFFE784461598F9
:100C9000C1F31301C0F30A50A0F2F5304FEA601817
:100CA00000F01F06C6F12000139000200690079068
:100CB00041F4801E05206D4676B1664A08EB0001BE
:100CC0007A4452F8213002EB8101B3404A6813990B
:100CD00022FA01F1194305E05F4908EB000279446B
:100CE00051F82210A1FB0E27A1FB0C131A449A42C3
:100CF00034BF0123002303EB070A05EB8003D3E98C
:100D000001B70F448F4234BF0121002193448B442B
:100D100011B1934502D903E0934501D2012100E0CE
:100D20000021C3E901B7514445F82010011EA0F18C
:100D30000100C1DC0298059F00F10050800F129065
:100D40000298DDE90356800000F0EDFC834628465A
:100D50000D9100F0FFFC6FF01D0201F004FACDE9E7
:100D60000E01304600F0F6FC6FF03D0201F0FBF999
:100D700080468A46384600F0EDFC6FF05D0201F0D7
:100D8000F2F9074642465346119100F095FADDE923
:100D90000E2300F091FA5A460D9B00F08DFA0025C3
:100DA0000E465A4628460D9B00F0F2FDDDE90E2363
:100DB00000F0EEFD4246534600F0EAFD3A46119B34
:100DC00000F0DAFDDFF898A0244A534600F0D6FC84
:100DD00007468846234A244B3146284600F0CEFC7D
:100DE0003A46434600F068FA074688464FF0A84264
:100DF00053463146284600F0C1FC3A46434600F0CF
:100E00005BFA159A12F0004F04D0129A81F000415B
:100E100052421292C4E90001129817B0BDE8F08F57
:100E2000FB21E93F7CD90240FB21F93F7370032E7F
:100E30008A19A33B000040543163621A61B4D03D6B
:100E4000FB21394183C8C96D305FE43F0000E03FBA
:100E5000E81500006415000046150000182D4454E4
:100E6000FB21F93D3326A611460B113C2DE9F0413B
:100E70004F1E00EBC7010446D1E9000115461E468E
:100E800037F006020DD02A46334600F077FC7F1E6D
:100E900004EBC703D3E9002300F00EFA37F0060293
:100EA000F1D1022F25D0042F13D0062F18BFBDE893
:100EB000F0812A46334600F061FCD4E90A2300F0B1
:100EC000FBF92A46334600F059FCD4E9082300F028
:100ED000F3F92A46334600F051FCD4E9062300F02A
:100EE000EBF92A46334600F049FCD4E9042300F02C
:100EF000E3F92A46334600F041FCD4E9022300F02E
:100F0000DBF92A46334600F039FCD4E90023BDE87A
:100F1000F04100F0D1B900002DE9F04D04468CB04D
:100F2000904821F00047164698460D4609918742A1
:100F300006DA2046294600F0C7FB002800F0AE8004
:100F40008948B8421CDC09980028BCBF85F00045E0
:100F500088F00048854A864B2046294600F00CFD63
:100F600004460D46324643468248834900F010FD50
:100F700022462B4600F0A0F9002604460D46B04656
:100F800022462B461046194600F0F8FB8B46824657
:100F900002460B4600F0F2FB0246089077480B46EB
:100FA000009106217844FFF761FFCDE903107448F2
:100FB00006217844009B089AFFF758FF52465B468B
:100FC00000F0DCFBCDE9051052465B462046294681
:100FD00000F0D4FB07910090DDE90310DDE9053254
:100FE00000F06AF9079B009A00F0C8FB32464346BE
:100FF00000F062F952465B4600F0C0FB32464346C1
:1010000000F05AF980460E465E4A5F4B07990098F9
:1010100000F0B4FB4246334600F04EF982468B4660
:1010200022462B4600F048F980464F480E46B8420B
:1010300014985BDC00F077FB074642463346059187
:1010400000F03AF9CDE90110424633461046194600
:1010500000F094FBDDE9013200F0DEF952465B4618
:1010600000F096FC22462B4600F086FC012201F09F
:101070007AF83A46059B00F07FFC04460D46099835
:10108000022101EAA070C0F1010000F04CFB0CB09D
:1010900022462B46BDE8F04D00F070BB1498401C72
:1010A000384320430BD01498012812D00CB02246AC
:1010B0002B46BDE8F04D0020344900F0ADB90CB02E
:1010C00025F000432246BDE8F04D0020304900F0F5
:1010D000A3B920462946FFF7F1FC042808BF00F019
:1010E00063F820460CB02946BDE8F08D012802BF08
:1010F00040460CB0BDE8F08D00270B463A4620462E
:10110000294600F039FC52465B4600F035FC0446A7
:101110000D464246334600201C4900F07DF98346C7
:101120003A4688463346104600F028FB0022184B0A
:1011300000F0C2F806468A4622462B46384641460B
:1011400000F01CFB3246534600F0B6F85A464346C0
:1011500000F014FB0CB03A464346BDE8F04D00F0F9
:10116000ABB800000000303E2894E53F182D4454F1
:10117000FB21E93F075C143326A6813C18130000CD
:101180003A130000635555555555D53F0000F0BF43
:101190000000F03F012200F0E6BF00221346104697
:1011A000114600F039B90000024A0020110700F092
:1011B000DABF000001FDFFFF15E0C8200A49086002
:1011C0004FF47A70094908600A200021FFF714F9EA
:1011D0004FF4FA7004490860C820044908600A20E6
:1011E0000021FFF709F9E8E7240000202000002093
:1011F00010B5164B21F00042012486B09A4203DC60
:101200000022134600941CE0114B9A4208D140B9C9
:101210004FF00100FFF702F8FFF7BFFF06B010BD67
:1012200003DBFFF7B7FF06B010BD02AAFFF75AFCB9
:1012300000F00100A4EB40000DF1080C00909CE8C8
:101240000F00FFF769FE06B010BD0000FB21E93F6B
:101250000000F07F21F00042A2F16052B2F5801F41
:1012600001F0004328BFD2F17F6C0BD95FEA001C6C
:1012700043EAC20242EB507018BF704728BF20F00B
:1012800001007047B2F5801FBCBF184670474FEA97
:10129000410C1CF5001F02D2084600F0AEBE70B52E
:1012A00000F016FB00000089FFF7F6BF4FF000408A
:1012B000A0F580007047000010B591EA030F48BF09
:1012C00083F0004300F16C83841A71EB030C05D2A8
:1012D000121943EB0C03001B61EB0C01DFF824E156
:1012E0004FEA1154A4EB135C1EEA430F18BF9EEAA9
:1012F000445F73D023EA0E03DCF1200E21EA04518F
:1013000043F4801332D322FA0CFE10EB0E0023FAC2
:101310000CFE41EB0E01CCF1200E03FA0EFE10EB99
:101320000E0051F10001B1F5801FCCF1200E32D238
:1013300001EB045112FA0EF2BDE8104058BF70479D
:10134000401C38BF5FEA420218BF7047002814BF34
:1013500020F0010041F100014FEA410313F5001FA5
:1013600038BF7047A1F1C04100F000BB012A43EB38
:101370000302ACF1200CDCF11F0E32BF4FF0000E67
:1013800023FA0CF310EB030041EB0451B4EB115FB3
:10139000D0D0A1EB045101F5801149085FEA30007B
:1013A00001EB04510ED350F1000038BF12FA0EFECB
:1013B00008D1BDE81040C9E7401C38BF5FEA4202CF
:1013C000CAD1C3E7BDE810404FEA410313F5001F3F
:1013D00038BF7047A1F1C04100F0C8BA9EEA445F2F
:1013E00008D011EA5E0FBDE8104004BF01F00041D3
:1013F00000207047BDE8104070B500F069FA00BFEA
:1014000064FBBE3E0000E0FF02494FF0000000F028
:1014100078BE00BF0000F87F2DE9C04130B4DFF88E
:10142000A0C23CEA111418BF3CEA131400F0EC808F
:1014300081EA03051CEA111444EAD57418BF1CEABA
:10144000131500F0C780A4EB05044FF0004545EAF2
:10145000C12145EAC32341EA505143EA525304F102
:101460007F74994204F500344FEAC0204FEAC2224B
:1014700008BF904200F09C804FEA13650FF24016BF
:10148000765D4FEA134506FB05F7C7F1807706FB4B
:1014900007F74FEAD737A7FB03687642C8F58038CD
:1014A000A7FB06CE38BFA8F1010807FB08E64FF0FE
:1014B000000EA6FB028CE6FB03CEDCF1000CCEF1A5
:1014C000004E38BFAEF1010EA6FB0C584FF00007DE
:1014D0004FF00005E6FB0E87A1FB08C6A0FB07CE78
:1014E00016EB0E0645F10005E1FB076515F1E04E30
:1014F0007EBFA4F580345FEA46066D4116F1800791
:1015000045F100054FEA17274FEA066647EA0567E7
:10151000A6F1DE46B6F1805F4FEA15251FD93846A1
:1015200024F0010C05EBC471BCF1FE6F01EB0C1152
:1015300002D8F0BCBDE8008124425CBF01F5801EEA
:101540009EEAC47F02D4F0BCBDE80081244238D4B6
:10155000F0BCA1F1C041BDE8004100F007BA4FEA7C
:10156000D22242EA43524FEAD323A7FB02864FEA34
:10157000D02040EA415007FB03661EEA0E0F4FEAF7
:10158000D12105FB026658BFA6EB0056B6EB00560C
:101590004FEA520E4EEAC37E18EB0E0E56EB530E78
:1015A000BDD518EB02085E417F1C55F10005B6E77A
:1015B0004FF480154FF000074FF000064FF0000881
:1015C000ADE7F0BC4FF0000001F1C04101F0004177
:1015D000BDE8008111EA0C1F0CEA131500D00CE0E5
:1015E00013EA0C1F00F025804FF00000F0BC81EAE8
:1015F000030101F00041BDE80081F0BCBDE80041FD
:1016000081EA030100F0B2B9F0BCBDE8004170B559
:1016100000F05EF9097EFC3E00F007B881EA0301A4
:101620004FF0000001F00041704781EA030100F033
:101630009DB9F0BCBDE800414FF000002149704762
:10164000FFFDFBF9F7F5F4F2F0EEEDEBE9E8E6E487
:10165000E3E1E0DEDDDBDAD8D7D5D4D3D1D0CFCD0E
:10166000CCCBCAC8C7C6C5C4C2C1C0BFBEBDBCBB47
:10167000BAB9B8B7B6B5B4B3B2B1B0AFAEADACAB42
:10168000AAA9A8A8A7A6A5A4A3A3A2A1A09F9F9E1C
:101690009D9C9C9B9A9999989797969595949393CE
:1016A000929191908F8F8E8E8D8C8C8B8B8A898965
:1016B00088888787868585848483838282818180E8
:1016C0000000FF070000F87F4FEA41034FEA535341
:1016D000A3F58063D3F11E03C8BFD3F1210C0CDD49
:1016E0004FF0004242EAC12242EA505232FA03FC71
:1016F0008CEAE17CACEBE1707047102BC4BF00209A
:10170000704703F5787CBCF1FF3F04D06FF00042D6
:1017100082EA2100704770B500F0DAF8499224801F
:1017200000207047F2E710F0004248BF4042B0FA94
:1017300080F310FA03F10AD0C3F11D0303F58063AF
:101740004FEA415002EB035202EBD12170474FF0B8
:1017500000007047B0FA80F310FA03F10AD0C3F129
:101760001D0303F580634FEA41504FEA035202EB39
:10177000D12170474FF0000070470000DFF848C1EA
:1017800070B51CEA111E1EBF1CEA13159EEA0C0F51
:1017900095EA0C0F00F06F8081EA030423EA4C13F2
:1017A0004EEAD47E21EA4C1141F4801143F48013B7
:1017B000AE44A1FB024CA0FB0365AEF17F7E36195F
:1017C00055EB0C05A1FB034C4CF10003A0FB021CE4
:1017D00016EB0C06654153F10003094218BF46F0B1
:1017E000010613F4007F0BD14FEA03314FEA0530B5
:1017F000340341EA155140EA16506FF003020AE043
:101800004FEAC3214FEAC520F40241EA555140EAAC
:1018100056506FF0020202EB2E4201EB025585EAB0
:10182000CE710AD05FEA440C18BF24F0004450F196
:10183000000041F1000120EAD47040F2FE7C6245D4
:1018400000D270BDA84214BF4FF080444FF0404416
:10185000002E08BF0024BEF1806FA8BFA1F1C041D7
:10186000BDE8704080F282804FF0000001F1C0417D
:1018700001F0004170479EEA0C0F0CEA131518BFE7
:1018800095EA0C0F06D04FF0000081EA030E0EF02F
:10189000004170BD00F01CF88900013E00F007B85F
:1018A00000F009B84FEA430C5FEA5C5C08D081EABB
:1018B000030100F05BB84FEA410C5FEA5C5CF6D1D3
:1018C0004FF00000014970470000FF070000F87F5B
:1018D0000EF1020E2EF0030E5EF8046B364205D4B4
:1018E000012A43EB030515F5001F12D8012841EB2F
:1018F000010C1CF5001F0CD80ED14FEAD17C15F558
:10190000001F0CEB4C0C0CF1020C08BF4CEBD37C11
:1019100004E04FF0080C01E04FEAD37C0CEB4C05DF
:1019200026FA05F606F00706B6F1040C06D20EEB11
:10193000860CBDE870404CF0010C6047DFE80CF00D
:10194000090B02024FF000414FF00000A1F5002109
:1019500070BD19461046012851EB010418BFD4F59B
:10196000001484BF002001F0004170BD0808A0F5FC
:1019700000114FEA3101704791EA030F10B581F071
:1019800000413FF5A1AC83F0004300F009B800002E
:1019900010B591EA030F48BF83F000433FF594ACC4
:1019A000841A71EB030C07D212198CF0004C43EB34
:1019B0000C03001B61EB0C01DFF8A4E14FEA1154AA
:1019C000A4EB135C1EEA430F18BF9EEA445F00F0CD
:1019D000B08023EA6E03524221EA0451C3EB6E0346
:1019E00038BF5B1EDCF1200E25D322FA0CFE10EB73
:1019F0000E0043FA0CFE41EB0E01CCF1200E03FA6F
:101A00000EFE10EB0E0051F10001CCF1200E29D496
:101A100012FA0EF201EB0451BDE8104058BF7047B6
:101A2000401C1CBFB2F1004F704700280CBF491C7E
:101A300020F00100704712EB020E43EB030218BFC7
:101A40004FF0010E4EEA4202ACF1200CDCF11E0E0A
:101A500054D943FA0CFE10EB0E0051F1FF31CCF1DA
:101A60001E0ED5D50EF1010E12FA0EFE404141EBCD
:101A7000010101EB445C5FEA5C5C10D910EBDE70A5
:101A800001EB045138BFBEF1004FBDE8104018BF54
:101A9000704700280CBF491C20F00100704730D26D
:101AA0004FEAD42C11F5001124F400641BD0B1FAD4
:101AB00081F20B3AA41AA41ED2F12003914030FA0D
:101AC00003F31943904001EBCC71002C01EB04515E
:101AD000BDE81040A8BF704701F1C0414FF00000C1
:101AE00001F000417047B0FA80F310FA03F100D121
:101AF00010BDE41A173C4805C90AE4E701EB04519C
:101B000010BD491001EB0451BDE810404FEA300010
:101B100002E04FF0000170474A0008BF0042F8D0D1
:101B2000B2F5001F28BF704701F000414FF00000E0
:101B300070479EEA445F07D011EA5E0FBDE810408F
:101B400004BF002100207047BDE8104070B5FFF7CA
:101B5000BFFE00BF40DFF63E83F0004110467047F5
:101B60000000E0FF43004FEAD30C4FEA3C0C434037
:101B70001FBF40070CF1605113F0FE4F70471CF07F
:101B8000006F03D100200CF0004170470CF00043BF
:101B900043EA507010B540EACC0000F0E8F900BF0D
:101BA000000000924FEA0001FFF7E0BE4FF0004155
:101BB0004FF00000A1F500217047000090EA010FEE
:101BC00048BF81F0004100F12E82421A3CBF801ACA
:101BD00089184FEAD0524FF07F4C1CEA410FA2EB1C
:101BE000D15318BF9CEA026F00F03B804FF0004CCD
:101BF0004CEA00204CEA012121FA03FC10EB0C0C0A
:101C00001ED202F1FF325FEA1C2040EBC25038BF07
:101C100070471CF07F0F4FEA400C18BFBCF17F4F9C
:101C200038BF7047C3F12003994008BF20F001007E
:101C3000BCF17F4F38BF7047A0F1C04000F0DDB964
:101C40004FEA3C00000A40EBC25028BF1CF0FF0FD7
:101C50004FEA400CE6D018BFBCF17F4F38BF704749
:101C6000EAE79CEA026F05D010EA5C0F08BF00F0BB
:101C70000040704710B500F07AF900BF64FBBE3E2B
:101C80004FF47F0C1CEAD0121EBF1CEAD11392EA5B
:101C90000C0F93EA0C0F00F0858090EA010F48BF0B
:101CA00042F4807240F4000C41F400002CF07F41BB
:101CB00020F07F4000B58142A2EB03020FF2081C26
:101CC000ACEB504EC0F100009EF800E04FEA4E0E23
:101CD00000FB0EFC38BF49004FEA2C1C02F5FA024B
:101CE0000CFB0EF34FEACE1E4FEA112C4FEAC12136
:101CF0000EEB635E42EB22420EFB0CFC4FEA1C53E0
:101D000000FB03114FEA112C4FEA01310EFB0CFCD2
:101D10004FEADC4C00FB0C11C14228BF09184CEB08
:101D200003335DF804EB10EB410143EBC250B2F515
:101D30007C0F38BF704729D512F0F00F1CBF00F19F
:101D4000C04000F000407047008182838485868710
:101D500088898B8C8D8E8F919293959697999A9C6A
:101D60009D9FA0A2A3A5A7A8AAACAEB0B2B3B5B7D9
:101D7000B9BCBEC0C2C5C7C9CCCED1D4D7D9DCDFAF
:101D8000E2E6E9ECF0F3F7FAFE0000004FEA400C5F
:101D90000CF1807CBCF17E4F28BF7047B0F1C04091
:101DA00000F02BB990EA010F0CEAD11348BF42F4BE
:101DB0008072624538BF634507D213F47F0F16D097
:101DC00080EA010000F00040704710B500F0CFF845
:101DD000097EFC3E00F005B880EA010000F00040FA
:101DE000704780EA010000F0004000F006B912F4EC
:101DF0007F0F04BF0248704780EA010000F0FDB881
:101E00000000C07F41000B0ED3F19E0208D950F4B0
:101E100000034FEA032323FA02F048BF4042704711
:101E200010B500F0A4F800BF49922480002070474C
:101E30006FF0004282EA20007047000010F000417D
:101E400048BF4042B0FA80F310FA03F2C3F19D0399
:101E50000BD051EAC35101EB1220530638BF704733
:101E600000F1010008BF20F0010070474FF47F0C23
:101E70001CEAD0121EBF1CEAD11392EA0C0F93EA9F
:101E80000C0F00F0478090EA010F48BF42F48072C7
:101E90004FF0004C4CEA00204CEA012102EB030217
:101EA000A0FB0113A2F50002002918BF43F00103B3
:101EB0005B0028BF4FEA330342EB22425FEA132C58
:101EC0004CEBC2502EBFBCEB436FB2F57C0F70479A
:101ED0004FEA036CBCF1004F08BF20F00100B2F5DF
:101EE0007C0F38BF70470BD582F0FF0212F5803FA0
:101EF000C8BF704700F1C040D8BF00F00040704735
:101F000000F5000C5FEA4C0C48BF7047B0F1C040D0
:101F100000F073B890EA010F0CEAD11348BF42F405
:101F20008072624538BF634504D280EA010000F048
:101F30000040704710B500F01AF800BF8900013E5C
:101F400000F007B800F009B85FEA410C5FEA1C6CCA
:101F500008D080EA010000F050B85FEA400C5FEA68
:101F60001C6CF6D14FF00040A0F5800070470EF1D8
:101F7000020E2EF0030E5EF8044B244204D44FEA06
:101F80004102B2F17F4F11D84FEA4003B3F17F4FC6
:101F90000CD80ED14FEAD07CB2F17F4F0CEB4C0C39
:101FA0000CF1020C08BF4CEBD17C04E04FF0080CA4
:101FB00001E04FEAD17C0CEB4C0324FA03F404F06B
:101FC0000704B4F1040C06D20EEB840CBDE81040FB
:101FD0004CF0010C6047DFE80CF0070802024FF0FC
:101FE0000040A0F5800010BD0846420018BFD2F1A5
:101FF000807288BF00F0004010BDFF2141EAD05040
:10200000C005704780F0004090EA010F7FF5DDAD1C
:1020100081F0004100F007B890EA010F48BF81F05D
:1020200000413FF5D2AD421A04D882F00042A0EB45
:10203000020011444FEAD0524FF07F4C1CEA410F8E
:10204000A2EBD15318BF9CEA026F4AD04FF0004C6C
:102050004CEA00204CEA012121FA03FCB0EB0C0C05
:102060000FD412F0FE0F36D05FEA4C001DD50012DF
:1020700040EBC25038BF70471CF03F0F18BF70478D
:102080000BE0A2F101025FEA1C2040EBC25038BF16
:1020900070471CF07F0F18BF7047C3F120039940B1
:1020A00014BF401E20F00100704780084FEA122341
:1020B00008BF7047B0FA80FCA2EB0C02CCF1280CF0
:1020C00060FA0CF093EA122F04BF00EBC250704785
:1020D0004FEAC3707047130A5FEADC1008BF70470D
:1020E000F6E79CEA026F04D010EA5C0F08BF0020FC
:1020F000704710B5FFF73BFF40DFF63E81F0004030
:1021000070470CF00F03092B08BF082000F059801E
:102110000A2B0BD0082B18BF704708BF1CF0400FCC
:102120000AD04FF000004FF0000170471CF0400F44
:1021300018BF4FF0004070471CF0100F08D020F07F
:10214000704300F07F4242EAD3014FEA4370704788
:1021500000F0604021F07F4242EA000201F07F403F
:1021600040EA727070474FF0FF0C4CF4E06C1CEAD0
:1021700011531CBF9CEA030C9445C2BFDA4201EB29
:1021800002517047002B0DD0BCF1000F0FD0002A78
:1021900001F00041A4BF41F0E04141F07F614FF008
:1021A0000000704701F000414FF00000704750EA16
:1021B00001334FF09B0C18BF4CF0806C7FF424A9C6
:1021C00070471CF4801F11D01CF4E02F03D06FEA7D
:1021D000CC31490070474FF04050EFF3008222F0BD
:1021E000704242EA000282F3008870474FF000001C
:1021F000704700000000000000004054FB21F93F40
:102200003163621A61B4D03D0000601A61B4D03D00
:102210007370032E8A19A33B0000002E8A19A33B7A
:10222000C14920259A837B3900000000000000008E
:102230006E83F9A22915444ED15727FCC0DD34F531
:10224000999562DB4190433CAB6351FE61C5BBDEB7
:102250003A6E24B7E0D24D42EA2E49061C92D109CB
:102260001CEB1DFE3EA729B1F53582E88444BB2E48
:1022700026709CE9417E5FB439D69139F439538395
:102280008B5F849C3B28F9BDFF97F81F0F9805DEF4
:102290008B112FEF1F6D0A5ACF7E366DB709CB27F2
:1022A000663F464F2DEA5F9EC7BA27757BF1E5EB87
:1022B000F739073DEA92528AB15FFB6B085D8D1FCB
:1022C0007AFE10111111C13F37D60684F464963F8F
:1022D000280356C9226D6D3F0165F2F2D844433F91
:1022E000A69237A0887E143F735360DBCB75F3BE94
:1022F000FE41B31BBAA1AB3F93846EE9E326823F54
:102300001583E0FEC8DB573F68108D1AF726303F73
:10231000E9A7F0320FB8123FD47ABF74702AFB3E9F
:102320004023000800000020780000006C01000835
:10233000B82300087800002060060000880100082B
:10234000000000000102030401020304060708095B
:102350000204060800000000000000000000000069
:10236000000000000000000000000000000000006D
:10237000000000000000000000000000000000005D
:10238000000000000000000000000000000000004D
:10239000000000000000000000000000000000003D
:1023A000000000000000000000000000000000002D
:0823B000000000000000000025
:04000005080001CD21
:00000001FF
